:030000000208658E
:0C086500787FE4F6D8FD75810A02084A8D
:03002300020800D0
:10080000C0E0C0D085D00A309805859908C29830DC
:10081000990F750941E509A2D0929BF599B294C24E
:0908200099850AD0D0D0D0E03255
:07087B00438920758DCC229A
:0A087100D2AFD2ACC2AB4398C02254
:10082900D3EF9400EE648094804015E4FCFD0DBD87
:1008390000010CBC01F8BD7EF5EF1F70E31E80E0DE
:01084900228C
:10084A0012087112087BD28EC298C299C294750995
:0B085A0041E509A2D0929BF59980FEB9
:00000001FF
