:10088C00C100C101C1020433000000000444000097
:10089C0000000437000000000422000000000426C1
:1008AC0000000000023E0000023B0000022A000093
:0408BC00022D000009
:10091100D2B5D2B4120950C2B4C2B575C504300003
:10092100FD1208EAE4F5C53000FD1208EAD2B5D29D
:03093100B480E4AB
:03004B0002093473
:10093400C0E0C0D075D000C007AFC4EF24807005FC
:0C09440085C521D200D007D0D0D0E03211
:10095000D2B4D2B543C32043C30143C31053C3F73A
:0C09600043C30443B104D2AF43C34022A0
:1008C100D3EF9400EE64809480401DE4FDEDFB3392
:1008D10095E0FAC3EB9405EA6480948050030D809F
:0808E100ECEF1F70DB1E80D854
:0108E90022EC
:0608EA00C2007FE87E035E
:1008F000D3EF9400EE648094804015E4FCFD0DBDC0
:1009000000010CBC01F8BD7EF5EF1F70E31E80E016
:0109100022C4
:03000000020800F3
:0C080000787FE4F6D8FD758147020847B8
:10080C00020911E493A3F8E493A34003F68001F2E8
:10081C0008DFF48029E493A3F85407240CC8C333ED
:10082C00C4540F4420C8834004F456800146F6DFBC
:10083C00E4800B010204081020408090088CE47EB8
:10084C00019360BCA3FF543F30E509541FFEE493B1
:10085C00A360010ECF54C025E060A840B8E493A378
:10086C00FAE493A3F8E493A3C8C582C8CAC583CAA3
:10087C00F0A3C8C582C8CAC583CADFE9DEE780BE5B
:0108C0000037
:00000001FF
