:03000000020800F3
:0C080000787FE4F6D8FD758149020847B6
:10092D00C1000122EF0144BE02460000024800282A
:10093D00012300014502202024EFBEF18CF2FEF3CD
:10094D00CEF529F63FF750F7DFF7DFF750F63FF515
:09095D0029F3CEF2FEF18CEFBE8D
:1008DE00D2B5D2B41209BC1209A4D28CD28EE5477D
:1008EE004546701AC2B4C2B575C50F3000FDC200C0
:1008FE0075C5FF3000FDC200D2B5D2B480E0E54729
:10090E006401454670D8C2B4C2B5F5C53000FDC20B
:0F091E0000E4F5C53000FDC200D2B5D2B480DFD1
:1009A400758911758BBE758DEF758A61758C3CD216
:0809B400AFD2A9D2ABD28C2214
:03001B0002096770
:10096700C0E0C0D0C28E85448B85228DB295D28ED1
:10097700C374019547F547E49546F546D0D0D0E0D6
:01098700323D
:03000B0002088C5C
:10088C00C0E0C0D075D000C000C28C758A61758C78
:10089C003CE549154970021548E5494548702AE57B
:1008AC004564207006C28CC28E801EB294742425BE
:1008BC0045F8E6F52274252545F8E6F54405450589
:1008CC0045754800754928D28ED28CD000D0D0D036
:0208DC00E03208
:0D09BC00D2B4D2B543C37543B104D2AF220B
:03004B000209881F
:10098800C0E0C0D075D000C007AFC4EF24807005A8
:0C09980085C521D200D007D0D0D0E032BD
:10080C000208DEE493A3F8E493A34003F68001F21C
:10081C0008DFF48029E493A3F85407240CC8C333ED
:10082C00C4540F4420C8834004F456800146F6DFBC
:10083C00E4800B010204081020408090092DE47E16
:10084C00019360BCA3FF543F30E509541FFEE493B1
:10085C00A360010ECF54C025E060A840B8E493A378
:10086C00FAE493A3F8E493A3C8C582C8CAC583CAA3
:10087C00F0A3C8C582C8CAC583CADFE9DEE780BE5B
:010966000090
:00000001FF
