:10088C00C100C101C1022040220800098F0B0F0CCE
:10089C00710DA70EA60F630FD80FFF0FD80F630EA5
:1008AC00A60DA70C710B0F098F0800067004F0033E
:1008BC008E02580159009C002700000027009C0163
:1008CC00590258038E04F00670026A00000264009C
:0908DC00000266001F026C0028F6
:1008E600D2B5D2B41209C41209B6D28CE4F564F5B5
:1008F60065C3E5659440E564648094805024C2B481
:10090600C2B574222565F8E6F5C53000FDC200744F
:10091600232565F8E6F5C53000FDC200D2B5D2B490
:0A09260080CF75640075654080C243
:03004B0002099A0D
:10099A00C0E0C0D075D000C007AFC4EF2480700596
:0C09AA0085C521D200D007D0D0D0E032AB
:0D09C400D2B4D2B543C37543B104D2AF2203
:10093000D3EF9400EE64809480401DE4FDEDFB3322
:1009400095E0FAC3EB9405EA6480948050030D802F
:08095000ECEF1F70DB1E80D8E4
:01095800227C
:10095900D3EF9400EE648094804015E4FCFD0DBD56
:1009690000010CBC01F8BD7EF5EF1F70E31E80E0AD
:01097900225B
:0E09B600438911D2A9D2AF758CFE758AFC223E
:03000B0002097A6D
:10097A00C0E0C0D0C28C758CFE758AFCB294740239
:10098A002565F565E43564F564D28CD0D0D0E032C3
:03000000020800F3
:0C080000787FE4F6D8FD75816F02084790
:10080C000208E6E493A3F8E493A34003F68001F214
:10081C0008DFF48029E493A3F85407240CC8C333ED
:10082C00C4540F4420C8834004F456800146F6DFBC
:10083C00E4800B010204081020408090088CE47EB8
:10084C00019360BCA3FF543F30E509541FFEE493B1
:10085C00A360010ECF54C025E060A840B8E493A378
:10086C00FAE493A3F8E493A3C8C582C8CAC583CAA3
:10087C00F0A3C8C582C8CAC583CADFE9DEE780BE5B
:0108E5000012
:00000001FF
