:030000000208BD36
:0C08BD00787FE4F6D8FD75814E02090436
:10094900C100C101C1020140000141FF043300009F
:100959000000044A000000000437000000000422DF
:1009690000000000042600000000023E0000023BD7
:0E0979000000022A0000022D000002420000D1
:10080000D2B5D2B4120A221209EED28CE4F540D24B
:100810008CC3E54094FF748094805026C2B4C2B566
:10082000E540C4540FF54EF5C53000FDC200E5406B
:10083000C454F0F54EF5C53000FDC200D2B5D2B4B7
:1008400080CFC28C758CED758A9ED28CE4F540C346
:10085000E54094FF74809480501AC2B4C2B575C547
:100860000F3000FDC20075C5FF3000FDC200D2B5DB
:10087000D2B480DBC28C758CED758A9ED28E7541A8
:10088000FFD3E5419400748094804026C2B4C2B581
:10089000E541C4540FF54EF5C53000FDC200E541F9
:1008A000C454F0F54EF5C53000FDC200D2B5D2B447
:0D08B00080CFC28E758DC8758B1202080CAA
:03004B000209D2D5
:1009D200C0E0C0D075D000C007AFC4EF248070055E
:0C09E20085C521D200D007D0D0D0E03273
:0D0A2200D2B4D2B543C37543B104D2AF22A4
:10098800D3EF9400EE64809480401DE4FDEDFB33CA
:1009980095E0FAC3EB9405EA6480948050030D80D7
:0809A800ECEF1F70DB1E80D88C
:0109B0002224
:1009B100D3EF9400EE648094804015E4FCFD0DBDFE
:1009C10000010CBC01F8BD7EF5EF1F70E31E80E055
:0109D1002203
:1009EE00438911D2A9D2ABD2AF758CED758A9E75A3
:0609FE008DC8758B12226A
:03000B00020A04E2
:0F0A0400C28C758CED758A9EB2940540D28C32EF
:03001B00020A13C3
:0F0A1300C28E758DC8758B12B2941541D28E327A
:1008C900020800E493A3F8E493A34003F68001F23D
:1008D90008DFF48029E493A3F85407240CC8C33330
:1008E900C4540F4420C8834004F456800146F6DFFF
:1008F900E4800B0102040810204080900949E47E3D
:10090900019360BCA3FF543F30E509541FFEE493F3
:10091900A360010ECF54C025E060A840B8E493A3BA
:10092900FAE493A3F8E493A3C8C582C8CAC583CAE5
:10093900F0A3C8C582C8CAC583CADFE9DEE780BE9D
:01098700006F
:00000001FF
