:03000000020B6B85
:0C0B6B00787FE4F6D8FD75817B020BB2A8
:100BF700C100C101C1020164000165FF0455000085
:100C07000000047100000000045B000000000422E3
:100C17000000000004260000000002620000025FDE
:100C27000000022B0000022F000002660000012ACC
:100C3700EF015ABE0268000002760028012D00016C
:100C47005902202035EFBEF18CF2FEF3CEF529F6DE
:100C57003FF750F7DFF7DFF750F63FF529F3CEF20E
:050C6700FEF18CEFBE60
:1009BB00D2B5D2B4120D87120D6FD28CD28EE4F554
:1009CB0064C3E56494FF748094804003020A5BE483
:1009DB00F57BF57AF579F578E4FFFE7D407C40AB4D
:1009EB007BAA7AA979A8781208F8505FC2B4C2B56D
:1009FB00E5694568701F856470E564C4540FF5752F
:100A0B00F5C53000FDC200E564C454F0F575F5C5BD
:100A1B003000FD8017E569640145687012F570F5CB
:100A2B00C53000FDC200E4F5C53000FD120CBDAFB2
:100A3B007BAE7AAD79AC78E4FBFA7980783F12081B
:100A4B00078F7B8E7A8D798C78808D05640209CC2B
:100A5B00E4F564C3E56494FF748094805070E4F50E
:100A6B007BF57AF579F578E4FFFE7D407C40AB7B36
:100A7B00AA7AA979A8781208F8504EC2B4C2B5E583
:100A8B00694568701075C50F3000FDC20075C5FF54
:100A9B003000FD8015E569640145687010F5C530BF
:100AAB0000FDC200E4F5C53000FD120CBDAF7BAEFE
:100ABB007AAD79AC78E4FBFA7980783F1208078F2E
:100ACB007B8E7A8D798C78809E0564020A5E7564C4
:100ADB00FFD3E56494007480948050030209C9E449
:100AEB00F57BF57AF579F578E4FFFE7D207C41AB5B
:100AFB007BAA7AA979A8781208F8505FC2B4C2B55C
:100B0B00E5694568701F856470E564C4540FF5751D
:100B1B00F5C53000FDC200E564C454F0F575F5C5AC
:100B2B003000FD8017E569640145687012F570F5BA
:100B3B00C53000FDC200E4F5C53000FD120CBDAFA1
:100B4B007BAE7AAD79AC78E4FBFA7980783F12080A
:100B5B00078F7B8E7A8D798C78808D1564020ADCF9
:03004B00020D5350
:100D5300C0E0C0D075D000C007AFC4EF24807005D9
:0C0D630085C521D200D007D0D0D0E032EE
:0D0D8700D2B4D2B543C37543B104D2AF223C
:100CE800D3EF9400EE64809480401DE4FDEDFB3367
:100CF80095E0FAC3EB9405EA6480948050030D8074
:080D0800ECEF1F70DB1E80D828
:010D100022C0
:100D1100D3EF9400EE648094804015E4FCFD0DBD9A
:100D210000010CBC01F8BD7EF5EF1F70E31E80E0F1
:010D3100229F
:0A0CBD00C200D2B5D2B47F027E005F
:100CC700D3EF9400EE648094804015E4FCFD0DBDE5
:100CD70000010CED64044C70F5EF1F70E31E80E01B
:010CE70022EA
:100D6F00758911758BBE758DEF758A61758C3CD247
:080D7F00AFD2A9D2ABD28C2245
:03001B00020D32A1
:100D3200C0E0C0D0C28E855A8B852A8DD28EC374F4
:100D4200019569F569E49568F568B294D0D0D0E070
:010D5200326E
:03000B00020C6D77
:100C6D00C0E0C0D075D000C000C28C758A61758C93
:100C7D003CE577157770021576E57745767028E5B2
:100C8D005964207006C28CC28E801C74352559F8AB
:100C9D00E6F52A74362559F8E6F55A0559055975BC
:100CAD007600757728D28ED28CD000D0D0D0E0329D
:100800000209A6E86480F8E933E83360110460F077
:10081000ED33EC337009E8FCE9FDEAFEEBFF22045E
:1008200060DED3EB9FEA9EE99DE8C2E78CF0C2F759
:1008300095F0400CE8CCF8E9CDF9EACEFAEBCFFB25
:1008400012097185D0F05804700320D5B3E8047004
:10085000075002B2D50209B092D5EC0460F7E4CC9F
:10086000C0E0C398F8603B94186008400DD0E0FBEE
:10087000020988E4FBFAC9FC8028E830E406E4C9F0
:10088000FBE4CAFCE830E305E4C9CACBFCE8540742
:100890006010F8C3E913F9EA13FAEB13FBEC13FC4D
:1008A000D8F130F52FC3E49CFCEF9BFFEE9AFEEDF0
:1008B00099FDD0E0FBEF4E4D4C701222DB03020994
:1008C000ADEC2CFCEF33FFEE33FEED33FDED30E706
:1008D000EB020988EF2BFFEE3AFEED39FDD0E0FB8D
:1008E00050130BBB00030209B0ED13FDEE13FEEF36
:0808F00013FFEC13FC02098860
:1008F80074F8CC6480CCC86480C8F58204604FC3A7
:10090800EB9FF5F0EA9E42F0E99D42F0E89C45F045
:10091800603C501DE5825FFFE582D313CB5BCBF4CF
:100928002B5582FB50280ABA002409B900200880F8
:100938001DE5825BFBE582D313CF5FCFF4C3132F92
:100948005582FF50090EBE00050DBD00010CC3EB1A
:100958009FF5F0EA9E42F0E99D42F0E89C45F06080
:0909680007CC4820E701B3EC22A2
:10097100E9D2E7C933E833F892D5EDD2E7CD33ECCC
:0709810033FC5002B2D52245
:10098800EC30E7100FBF000C0EBE00080DBD0004D0
:100998000BEB6014A2D5EB13FCED92E7FD2274FF7C
:1009A800FCFDFEFF22E480F8A2D574FF13FC7D80D5
:0309B800E480EFE9
:100B77000209BBE493A3F8E493A34003F68001F2D0
:100B870008DFF48029E493A3F85407240CC8C3337F
:100B9700C4540F4420C8834004F456800146F6DF4E
:100BA700E4800B0102040810204080900BF7E47EDC
:100BB700019360BCA3FF543F30E509541FFEE49343
:100BC700A360010ECF54C025E060A840B8E493A30A
:100BD700FAE493A3F8E493A3C8C582C8CAC583CA35
:100BE700F0A3C8C582C8CAC583CADFE9DEE780BEED
:010C6C000087
:00000001FF
