:03000000020800F3
:0C080000787FE4F6D8FD75814C020847B3
:10090000C100C101C1020140000141FF04330000E8
:10091000000004480000000004370000000004222A
:1009200000000000042600000000023E0000023B20
:0E0930000000022A0000022D0000024200001A
:10088C00D2B5D2B41209C41209B6D28CE4F540C365
:10089C00E54094FF748094805026C2B4C2B5E54004
:1008AC00C4540FF54CF5C53000FDC200E540C454EE
:1008BC00F0F54CF5C53000FDC200D2B5D2B480CFF6
:1008CC007541FFD3E54194007480948040BEC2B45E
:1008DC00C2B5E541C4540FF54CF5C53000FDC2005E
:1008EC00E541C454F0F54CF5C53000FDC200D2B55D
:0408FC00D2B480CF23
:03004B000209891E
:10098900C0E0C0D075D000C007AFC4EF24807005A7
:0C09990085C521D200D007D0D0D0E032BC
:0D09C400D2B4D2B543C37543B104D2AF2203
:10093F00D3EF9400EE64809480401DE4FDEDFB3313
:10094F0095E0FAC3EB9405EA6480948050030D8020
:08095F00ECEF1F70DB1E80D8D5
:01096700226D
:10096800D3EF9400EE648094804015E4FCFD0DBD47
:1009780000010CBC01F8BD7EF5EF1F70E31E80E09E
:01098800224C
:0E09B600438911D2A9D2AF758C48758A2D22C3
:03000B000209A542
:1009A500C28C758C48758A2DB29405401541D28C40
:0109B500320F
:10080C0002088CE493A3F8E493A34003F68001F26E
:10081C0008DFF48029E493A3F85407240CC8C333ED
:10082C00C4540F4420C8834004F456800146F6DFBC
:10083C00E4800B0102040810204080900900E47E43
:10084C00019360BCA3FF543F30E509541FFEE493B1
:10085C00A360010ECF54C025E060A840B8E493A378
:10086C00FAE493A3F8E493A3C8C582C8CAC583CAA3
:10087C00F0A3C8C582C8CAC583CADFE9DEE780BE5B
:01093E0000B8
:00000001FF
