:0C09B70048656C6C6F00576F726C640038
:0209C300C10071
:1008ED00E4F5A012093D7F8012098B7BFF7A09790F
:1008FD00B77D051208BD7FC512098B7BFF7A09797B
:0F090D00BD7D051208BD7F887E1312091C80D79F
:10093D007F647E001208947F3812098B7F0E120996
:0B094D008B7F0112098B7F8002098B59
:10098B008F081209588508A0C28012088CC2827F7A
:06099B00057E0002089435
:1009A1008F0C120958850CA0D28012088CC2827F4C
:0609B100057E000208941F
:1008BD008B088A09890A8D0BD3E50B9400748094FB
:1008CD0080401CAB08AA09A90A120972FF1209A1DE
:1008DD007401250AF50AE43509F509150B80D922AD
:1009580075A0FFC280D281C282120890D28230A7CD
:0A09680006C282D28280F7C282220A
:08088C00C281D2827F057E00CB
:10089400D3EF9400EE64809480401DE4FDEDFB33BF
:1008A40095E0FAC3EB9405EA6480948050030D80CC
:0808B400ECEF1F70DB1E80D881
:0108BC002219
:10091C00D3EF9400EE648094804015E4FCFD0DBD93
:10092C0000010CBC01F8BD7EF5EF1F70E31E80E0EA
:01093C002298
:03000000020800F3
:0C080000787FE4F6D8FD758120020847DF
:10097200BB010689828A83E0225002E722BBFE0283
:09098200E32289828A83E49322B6
:10080C000208EDE493A3F8E493A34003F68001F20D
:10081C0008DFF48029E493A3F85407240CC8C333ED
:10082C00C4540F4420C8834004F456800146F6DFBC
:10083C00E4800B01020408102040809009C3E47E80
:10084C00019360BCA3FF543F30E509541FFEE493B1
:10085C00A360010ECF54C025E060A840B8E493A378
:10086C00FAE493A3F8E493A3C8C582C8CAC583CAA3
:10087C00F0A3C8C582C8CAC583CADFE9DEE780BE5B
:0109C5000031
:00000001FF
