:030FCC006D6D0048
:100EC400C100C101C102045400000000042200005A
:100ED4000000042800000000012600015B000465F6
:100EE4000000000002580004025F000A02690000CA
:100B6E00D294439020120F7D120F62120FBED28CC0
:100B7E00755800755904755F0075600AC294E4F5E6
:100B8E00C53000FD852127C200E4F5C53000FD8586
:100B9E00215AC200D294E52775F004A4FFE55AC489
:100BAE00131354037C002FFFEC35F0FE3395E08FCA
:100BBE00258E24F523F522E560455F70BFE4F5A090
:100BCE00F55F75600A120F62AF2BAE2AAD29AC2805
:100BDE00E41209067B5C7A8F795278401208001273
:100BEE0009448F648E638D628C61E47FDC7E05FD2B
:100BFE00FCAB2BAA2AA929A828D3120AF05016AFAB
:100C0E002BAE2AAD29AC28E41209067BEC7A517979
:100C1E0038783E8027E47FDC7E05FDFCAB2BAA2ACC
:100C2E00A929A828D3120AF04020AF2BAE2AAD294D
:100C3E00AC28E4120906E4FBFAF9783F1208001218
:100C4E0009448F648E638D628C617F83120F97E4EB
:100C5E007B0AFAF9F8AF64AE63AD62AC61120A506A
:100C6E00AE02AF038E5C8F5D120E5C7F82120F9709
:100C7E00E47B64FAF9F8AF64AE63AD62AC61120A5C
:100C8E0050AE02AF038E5C8F5D7D0A120E4F7F81D8
:100C9E00120F97E47BE87A03F9F8AF64AE63AD62A6
:100CAE00AC61120A50AE02AF038E5C8F5D7D641292
:100CBE000E4F7F80120F97E47B107A27F9F8AF64FE
:100CCE00AE63AD62AC61120A50AE02AF038E5C8FA2
:100CDE005D7C037DE8120E517F86120F977BFF7AA3
:0B0CEE000F79CC7D02120EF5020B8A7C
:03004B00020F465B
:100F4600C0E0C0D075D000C007AFC4EF24807005E4
:0C0F560085C521D200D007D0D0D0E032F9
:03000B00020CF9EB
:100CF900C0E0C0F0C083C082C0D075D000C000C0C1
:100D090001C002C003C004C005C006C007C28C757B
:100D19008901758CEC758A78E55915597002155851
:100D2900E55945587021F558755904E56015607005
:100D390002155FAF25AE24AD23AC22E56025E02581
:100D4900E0242CF8120B0DE560455F7050F55875DD
:100D59005904F569F56AE56A25E025E0242CF812BD
:100D69000B01E52B2FF52BE52A3EF52AE5293DF563
:100D790029E5283CF528056AE56A70020569640ACF
:100D8900456970D2AF2BAE2AAD29AC28E47B0AFAAB
:100D9900F9F8120A508F2B8E2A8D298C28D28CD0E3
:100DA90007D006D005D004D003D002D001D000D09E
:0A0DB900D0D082D083D0F0D0E03219
:100F7D00D29443C32043C30143C31053C3F743C3A8
:0A0F8D000443B104D2AF43C3402275
:0E0FBE00758901758CEC758A78D2A9D2AF22A4
:100F62007F647E00120E9B7F38120F977F0C120F48
:0B0F7200977F01120F977F80020F97FE
:100F97008F08120FAD8508A0C280120E93C2827F00
:060FA700057E00020E9B16
:100E4F007C001209DE8E5C8F5DAB07AA06EA339534
:100E5F00E0F9F8C3E5649BF564E5639AF563E56231
:0E0E6F0099F562E56198F561EF2430F55EFFBC
:100E7D008F0C120FAD850CA0D280120E93C2827F03
:060E8D00057E00020E9B31
:100EF5008B088A09890A8D0BD3E50B9400748094BD
:100F050080401CAB08AA09A90A1209C5FF120E7D6B
:100F15007401250AF50AE43509F509150B80D9226E
:100FAD0075A0FFC280D281C282120E97D282C282F8
:010FBD002211
:080E9300C281D2827F057E00BE
:100E9B00D3EF9400EE64809480401DE4FDEDFB33B2
:100EAB0095E0FAC3EB9405EA6480948050030D80BF
:080EBB00ECEF1F70DB1E80D874
:010EC300220C
:100F2500D3EF9400EE648094804015E4FCFD0DBD84
:100F350000010CBC01F8BD7EF5EF1F70E31E80E0DB
:010F45002289
:03000000020DC32B
:0C0DC300787FE4F6D8FD75816A020E0A04
:10080000EC4D6011E8497017ED33EC3304600DE4F2
:10081000FCFFFEFD22E933E8330470F80209B01250
:10082000097B58046009E4CC248150062850090251
:1008300009BA2840030209B7C0E0EB4A7044B98006
:1008400006D0E0FB0209A6EF4E701CBD8008EBFF4E
:10085000EAFEE9FD80EBE98DF0A4FEE5F00208E98F
:10086000E9CDF9EAFEEBFFEF89F0A4FCE5F0CE89D3
:10087000F0A42EFFE435F0CD89F0A42DFEE435F090
:100880008067EF4E7005BD80D780C3EF8BF0A4ACBE
:10089000F0EE8BF0A42CFCE435F0F8EF8AF0A42CF9
:1008A000E5F038FCE433CB8DF0A42CFCE5F03BF80C
:1008B000EE8AF0A42CFCE5F038F8E433CF89F0A4FC
:1008C0002CFCE5F038CF3400CE89F0A42FFFE5F002
:1008D0003EFEE433C98DF0A42EFEE5F039CD8AF05A
:1008E000A42FFFE5F03EFEE43DFD33D0E0FB5007D2
:1008F0000BBB000F0209BAEC2CFCEF33FFEE33FE0A
:06090000ED33FD02099237
:1009060075F020800E75F010800575F0087D007E6C
:10091600007F003392D530D503120AE2EC33401043
:10092600EF33FFEE33FEED33FDEC33FCD5F0ED2275
:0E093600E5F0247EA2D513CC92E7CDCEFF22B1
:10094400EDD2E7CD33EC3392D524814006E4FFFEAB
:10095400FDFC22FCE4CFCECDCC24E0501174FF800A
:10096400EDC3CC13CCCD13CDCE13CECF13CF0470A7
:07097400F030D5DE020AE2BB
:10097B00E9D2E7C933E833F892D5EDD2E7CD33ECC2
:07098B0033FC5002B2D5223B
:10099200EC30E7100FBF000C0EBE00080DBD0004C6
:1009A2000BEB6014A2D5EB13FCED92E7FD2274FF72
:1009B200FCFDFEFF22E480F8A2D574FF13FC7D80CB
:0309C200E480EFDF
:100DCF00020B6EE493A3F8E493A34003F68001F2C1
:100DDF0008DFF48029E493A3F85407240CC8C33325
:100DEF00C4540F4420C8834004F456800146F6DFF4
:100DFF00E4800B0102040810204080900EC4E47EB2
:100E0F00019360BCA3FF543F30E509541FFEE493E8
:100E1F00A360010ECF54C025E060A840B8E493A3AF
:100E2F00FAE493A3F8E493A3C8C582C8CAC583CADA
:100E3F00F0A3C8C582C8CAC583CADFE9DEE780BE92
:010EF40000FD
:1009C500BB010689828A83E0225002E722BBFE0230
:0909D500E32289828A83E4932263
:1009DE00C2D5EC30E709B2D5E4C39DFDE49CFCEE34
:1009EE0030E715B2D5E4C39FFFE49EFE120B19C388
:1009FE00E49DFDE49CFC8003120B1930D507C3E483
:060A0E009FFFE49EFE22A2
:100A140075F008758200EF2FFFEE33FECD33CDCC99
:100A240033CCC58233C5829BED9AEC99E58298401C
:100A34000CF582EE9BFEED9AFDEC99FC0FD5F0D6F9
:100A4400E4CEFBE4CDFAE4CCF9A88222B800C1B923
:100A54000059BA002DEC8BF084CFCECDFCE5F0CB61
:100A6400F97818EF2FFFEE33FEED33FDEC33FCEB9A
:100A740033FB10D703994004EB99FB0FD8E5E4F955
:100A8400FA227818EF2FFFEE33FEED33FDEC33FC42
:100A9400C933C910D7059BE99A4007EC9BFCE99A36
:100AA400F90FD8E0E4C9FAE4CCFB2275F010EF2F7B
:100AB400FFEE33FEED33FDCC33CCC833C810D7077B
:100AC4009BEC9AE899400AED9BFDEC9AFCE899F8B6
:0E0AD4000FD5F0DAE4CDFBE4CCFAE4C8F92249
:0E0AE200C3E49FFFE49EFEE49DFDE49CFC2225
:100AF000EB9FF5F0EA9E42F0E99D42F0E89C45F05C
:010B000022D2
:0C0B0100E6FC08E6FD08E6FE08E6FF2220
:0C0B0D00ECF608EDF608EEF608EFF62214
:100B1900BC000BBE0029EF8DF084FFADF022E4CCC0
:100B2900F875F008EF2FFFEE33FEEC33FCEE9DEC89
:100B3900984005FCEE9DFE0FD5F0E9E4CEFD22EDCF
:100B4900F8F5F0EE8420D21CFEADF075F008EF2F19
:100B5900FFED33FD4007985006D5F0F222C398FD0A
:050B69000FD5F0EA22A7
:00000001FF
