:030F5B006D5600D0
:100E5300C100C101C10204540000000004220000CB
:100E63000000042800000000012600015B00046567
:100E73000000000002580004025F000A026900003B
:100B5D00D294439020120F0C120EF1120F4DD28C25
:100B6D00755800755904755F0075600AC294E4F5F7
:100B7D00C53000FD852127C200E4F5C53000FD8597
:100B8D00215AC200D294E52775F004A4FFE55AC49A
:100B9D00131354037C002FFFEC35F0FE3395E08FDB
:100BAD00258E24F523F522E560455F70BFE4F5A0A1
:100BBD00F55F75600A120EF1AF2BAE2AAD29AC2888
:100BCD00E41209067B5C7A8F795278401208001284
:100BDD0009448F648E638D628C617F83120F26E4CE
:100BED007B0AFAF9F8AF64AE63AD62AC61120A50DC
:100BFD00AE02AF038E5C8F5D120DEB7F82120F265E
:100C0D00E47B64FAF9F8AF64AE63AD62AC61120ACD
:100C1D0050AE02AF038E5C8F5D7D0A120DDE7F81BB
:100C2D00120F26E47BE87A03F9F8AF64AE63AD6288
:100C3D00AC61120A50AE02AF038E5C8F5D7D641203
:100C4D000DDE7F80120F26E47B107A27F9F8AF6452
:100C5D00AE63AD62AC61120A50AE02AF038E5C8F13
:100C6D005D7C037DE8120DE07F86120F267BFF7AF7
:0B0C7D000F795B7D02120E84020B79E0
:03004B00020ED5CD
:100ED500C0E0C0D075D000C007AFC4EF2480700556
:0C0EE50085C521D200D007D0D0D0E0326B
:03000B00020C885C
:100C8800C0E0C0F0C083C082C0D075D000C000C032
:100C980001C002C003C004C005C006C007C28C75ED
:100CA8008901758CEC758A78E559155970021558C3
:100CB800E55945587021F558755904E56015607077
:100CC80002155FAF25AE24AD23AC22E56025E025F3
:100CD800E0242CF8120AFCE560455F7050F5587561
:100CE8005904F569F56AE56A25E025E0242CF8122F
:100CF8000AF0E52B2FF52BE52A3EF52AE5293DF5E7
:100D080029E5283CF528056AE56A70020569640A40
:100D1800456970D2AF2BAE2AAD29AC28E47B0AFA1C
:100D2800F9F8120A508F2B8E2A8D298C28D28CD054
:100D380007D006D005D004D003D002D001D000D00F
:0A0D4800D0D082D083D0F0D0E0328A
:100F0C00D29443C32043C30143C31053C3F743C319
:0A0F1C000443B104D2AF43C34022E6
:0E0F4D00758901758CEC758A78D2A9D2AF2215
:100EF1007F647E00120E2A7F38120F267F0C120F9C
:0B0F0100267F01120F267F80020F26C2
:100F26008F08120F3C8508A0C280120E22C2827F53
:060F3600057E00020E2AF8
:100DDE007C001209DE8E5C8F5DAB07AA06EA3395A6
:100DEE00E0F9F8C3E5649BF564E5639AF563E562A3
:0E0DFE0099F562E56198F561EF2430F55EFF2E
:100E0C008F0C120F3C850CA0D280120E22C2827F56
:060E1C00057E00020E2A13
:100E84008B088A09890A8D0BD3E50B94007480942E
:100E940080401CAB08AA09A90A1209C5FF120E0C4E
:100EA4007401250AF50AE43509F509150B80D922E0
:100F3C0075A0FFC280D281C282120E26D282C282DA
:010F4C002282
:080E2200C281D2827F057E002F
:100E2A00D3EF9400EE64809480401DE4FDEDFB3323
:100E3A0095E0FAC3EB9405EA6480948050030D8030
:080E4A00ECEF1F70DB1E80D8E5
:010E5200227D
:100EB400D3EF9400EE648094804015E4FCFD0DBDF6
:100EC40000010CBC01F8BD7EF5EF1F70E31E80E04D
:010ED40022FB
:03000000020D529C
:0C0D5200787FE4F6D8FD75816A020D99E7
:10080000EC4D6011E8497017ED33EC3304600DE4F2
:10081000FCFFFEFD22E933E8330470F80209B01250
:10082000097B58046009E4CC248150062850090251
:1008300009BA2840030209B7C0E0EB4A7044B98006
:1008400006D0E0FB0209A6EF4E701CBD8008EBFF4E
:10085000EAFEE9FD80EBE98DF0A4FEE5F00208E98F
:10086000E9CDF9EAFEEBFFEF89F0A4FCE5F0CE89D3
:10087000F0A42EFFE435F0CD89F0A42DFEE435F090
:100880008067EF4E7005BD80D780C3EF8BF0A4ACBE
:10089000F0EE8BF0A42CFCE435F0F8EF8AF0A42CF9
:1008A000E5F038FCE433CB8DF0A42CFCE5F03BF80C
:1008B000EE8AF0A42CFCE5F038F8E433CF89F0A4FC
:1008C0002CFCE5F038CF3400CE89F0A42FFFE5F002
:1008D0003EFEE433C98DF0A42EFEE5F039CD8AF05A
:1008E000A42FFFE5F03EFEE43DFD33D0E0FB5007D2
:1008F0000BBB000F0209BAEC2CFCEF33FFEE33FE0A
:06090000ED33FD02099237
:1009060075F020800E75F010800575F0087D007E6C
:10091600007F003392D530D503120AE2EC33401043
:10092600EF33FFEE33FEED33FDEC33FCD5F0ED2275
:0E093600E5F0247EA2D513CC92E7CDCEFF22B1
:10094400EDD2E7CD33EC3392D524814006E4FFFEAB
:10095400FDFC22FCE4CFCECDCC24E0501174FF800A
:10096400EDC3CC13CCCD13CDCE13CECF13CF0470A7
:07097400F030D5DE020AE2BB
:10097B00E9D2E7C933E833F892D5EDD2E7CD33ECC2
:07098B0033FC5002B2D5223B
:10099200EC30E7100FBF000C0EBE00080DBD0004C6
:1009A2000BEB6014A2D5EB13FCED92E7FD2274FF72
:1009B200FCFDFEFF22E480F8A2D574FF13FC7D80CB
:0309C200E480EFDF
:100D5E00020B5DE493A3F8E493A34003F68001F243
:100D6E0008DFF48029E493A3F85407240CC8C33396
:100D7E00C4540F4420C8834004F456800146F6DF65
:100D8E00E4800B0102040810204080900E53E47E94
:100D9E00019360BCA3FF543F30E509541FFEE4935A
:100DAE00A360010ECF54C025E060A840B8E493A321
:100DBE00FAE493A3F8E493A3C8C582C8CAC583CA4C
:100DCE00F0A3C8C582C8CAC583CADFE9DEE780BE04
:010E8300006E
:1009C500BB010689828A83E0225002E722BBFE0230
:0909D500E32289828A83E4932263
:1009DE00C2D5EC30E709B2D5E4C39DFDE49CFCEE34
:1009EE0030E715B2D5E4C39FFFE49EFE120B08C399
:1009FE00E49DFDE49CFC8003120B0830D507C3E494
:060A0E009FFFE49EFE22A2
:100A140075F008758200EF2FFFEE33FECD33CDCC99
:100A240033CCC58233C5829BED9AEC99E58298401C
:100A34000CF582EE9BFEED9AFDEC99FC0FD5F0D6F9
:100A4400E4CEFBE4CDFAE4CCF9A88222B800C1B923
:100A54000059BA002DEC8BF084CFCECDFCE5F0CB61
:100A6400F97818EF2FFFEE33FEED33FDEC33FCEB9A
:100A740033FB10D703994004EB99FB0FD8E5E4F955
:100A8400FA227818EF2FFFEE33FEED33FDEC33FC42
:100A9400C933C910D7059BE99A4007EC9BFCE99A36
:100AA400F90FD8E0E4C9FAE4CCFB2275F010EF2F7B
:100AB400FFEE33FEED33FDCC33CCC833C810D7077B
:100AC4009BEC9AE899400AED9BFDEC9AFCE899F8B6
:0E0AD4000FD5F0DAE4CDFBE4CCFAE4C8F92249
:0E0AE200C3E49FFFE49EFEE49DFDE49CFC2225
:0C0AF000E6FC08E6FD08E6FE08E6FF2232
:0C0AFC00ECF608EDF608EEF608EFF62226
:100B0800BC000BBE0029EF8DF084FFADF022E4CCD1
:100B1800F875F008EF2FFFEE33FEEC33FCEE9DEC9A
:100B2800984005FCEE9DFE0FD5F0E9E4CEFD22EDE0
:100B3800F8F5F0EE8420D21CFEADF075F008EF2F2A
:100B4800FFED33FD4007985006D5F0F222C398FD1B
:050B58000FD5F0EA22B8
:00000001FF
