:03000000020901F1
:0C090100787FE4F6D8FD758113020948E8
:040AC900020800001F
:100A70007590F0759DF0759C0FE4F59EE59E70FCF9
:060A800075B101D2AF22A6
:100A1C00E4FDFCC3ED9FEC9E5015E4FBFA0BBB0010
:0F0A2C00010ABA01F8BB7EF50DBD00010C80E494
:010A3B002298
:10080000E4F50DF50EF9F50FF510FDFCFE7590F011
:10081000E590F454F0C4540FFFAB05A803EF088033
:1008200002C313D8FC30E0048D0E800B0DBD000117
:100830000CED64044C70E275900FE590F4540FFFDA
:10084000E4FCFDAB05A803EF088002C313D8FC301D
:10085000E004A905800B0DBD00010CED64044C7093
:10086000E2E50E25E025E029F50F7590F0E590F41E
:1008700054F0C4540FFFE4FCFDAB05A803EF08805F
:1008800002C313D8FC30E0048D0E800B0DBD0001B7
:100890000CED64044C70E275900FE590F4540FFF7A
:1008A000E4FCFDAB05A803EF088002C313D8FC30BD
:1008B000E004A905800B0DBD00010CED64044C7033
:1008C000E2E50E25E025E029F510B50F01FE7430B4
:1008D0002EFEFDD39439748094804016ED944174BB
:1008E000809480500D74072EFE8007AF90EF64F067
:1008F00060057590F080F4E4F59EE59E70FCAF060F
:0109000022D4
:0709D000120A9B7F047E0068
:1009D700E4FDFCC3ED9FEC9E5015E4FBFA0BBB0056
:0F09E700010ABA01F8BB7EF50DBD00010C80E4DA
:0109F60022DE
:100A9B00C280C281D2828FA07F0A7E001209D7C288
:020AAB008222A5
:100AAD00D280C281D2828FA07F0A7E001209D7C266
:020ABD00822293
:1009F7008B118A128913AB11AA12A913120A576015
:100A0700130513E5137002051214F9120A57FF12A2
:050A17000AAD80E2229F
:100A3C007F387E001209D07F061209D07F0C120974
:0B0A4C00D07F011209D07F80020A9BBE
:0A0ABF00E4F5A0C282C280C28122C9
:03003B0002098D2A
:10098D00C0E0C0D075D000C000C001C002C003C01F
:10099D0004C005C006C007120800120AAD7FE87E2C
:1009AD00031209D77F017E00120A9B759E00D007A6
:1009BD00D006D005D004D003D002D001D000D0D0C5
:0309CD00D0E03245
:100A8600120A70120ABFE4F5A0120A3C7F807E00AB
:050A9600120A9B80F72D
:10090D00020A86E493A3F8E493A34003F68001F270
:10091D0008DFF48029E493A3F85407240CC8C333EB
:10092D00C4540F4420C8834004F456800146F6DFBA
:10093D00E4800B0102040810204080900AC9E47E77
:10094D00019360BCA3FF543F30E509541FFEE493AF
:10095D00A360010ECF54C025E060A840B8E493A376
:10096D00FAE493A3F8E493A3C8C582C8CAC583CAA1
:10097D00F0A3C8C582C8CAC583CADFE9DEE780BE59
:010ACD000028
:100A5700BB010689828A83E0225002E722BBFE029D
:090A6700E32289828A83E49322D0
:00000001FF
