:03000000020200F9
:1002000075A00075900051975197512C51975197B7
:100210005197748551695197900300518951977492
:10022000C351695197900306518980FE75A038C269
:1002300080C281D2825197C282519775A00CC28030
:10024000C281D2825197C282519775A001C280C2E9
:1002500081D2825197C282519775A006C280C28115
:10026000D2825197C282519722F5A0C280C281D218
:10027000825197C282519722F5A0D280C281D28248
:100280005197C2825197519722C0E0E49360055183
:1002900078A380F7D0E022C000C001780179FFD9AF
:0802A000FED8FAD001D00022C3
:1003000050742D35310049495420426F6D62617936
:0103100000EC
:00000001FF
