:03000000020200F9
:1002000075A00075900051C251C2514351C251C2F4
:1002100051C27481518051C290030051A051C2510A
:10022000C27991774409774909774D097750097761
:100230004C09774509770074C4518051C2789151B7
:10024000AE80FE75A038C280C281D28251C2C28205
:1002500051C275A00CC280C281D28251C2C28251E9
:10026000C275A001C280C281D28251C2C28251C273
:1002700075A006C280C281D28251C2C28251C222FE
:10028000F5A0C280C281D28251C2C28251C222F57F
:10029000A0D280C281D28251C2C28251C251C22236
:1002A000C0E0E4936005518FA380F7D0E022C00046
:1002B000C0E07891E4E66005518F0880F7D0E0D087
:1002C0000022C000C001780179FFD9FED8FAD00120
:0302D000D0002239
:0F030000454520333337202D204C6162203400D7
:00000001FF
