:030000000203DF19
:1002000075A038C280C281D2825173C28251737587
:10021000A00CC280C281D2825173C282517375A078
:1002200001C280C281D2825173C282517375A0060D
:10023000C280C281D2825173C282517322F5A0C2A0
:1002400080C281D2825173C282517322F5A0D280C2
:10025000C281D2825173C2825173517322C000C0D5
:10026000E07840E4E66007514C08E4E6514CD0E009
:10027000D00022C000C001780179FFD9FED8FAD0A1
:1002800001D000227590FF1202CAC297C296C29591
:10029000C294120304A2939297A2929296A2919270
:1002A00095A2909294E4C3A29733A29633A2953379
:1002B000A29433F5301202CAE4C3A29333A292335C
:1002C000A29133A29033B40FBB22C0D0C003C004AC
:1002D000C0057B647CC87DFFDDFEDCFADBF6D00563
:1002E000D004D003D0D022C0D0C003C004C0057B4E
:1002F000287CC87DFFDDFEDCFADBF6D005D004D01B
:1003000003D0D022C0D0C003C004C0057B147CC879
:0A0310007DFFDDFEDCFADBF6D00510
:10031A00D004D003D0D022C000A851E4C3E54EC413
:10032A00254FF6D00022C000C001E5902539F535E9
:10033A00F8120371B6000F75A001C280C281D28281
:10034A005173C282801975A00051735173510051C3
:10035A0073517351737485513D5173515D517312C9
:10036A0002E7D001D00022C0D0C000C001C002A85C
:10037A003579407A01E654F0C4F7940A40025007EE
:10038A00E72430F7098007E72437F7098000E654A5
:10039A000FF7940A40025007E72430F7098007E76D
:1003AA002437F709800008DACCD002D001D000D077
:1003BA00D022C000C001C002A838A939AA50EA94C4
:1003CA0001FAE60866F709DAF9E6A83866F7D0020C
:1003DA00D001D00022755003755160AB518B38752E
:1003EA003970AA5012028485304E12028485304F29
:1003FA001203210551DAEDC297C296C295C29475CD
:10040A004E00754F001203BC1202E712033080FB44
:00000001FF
