:030000000203DF19
:1002000075A038C280C281D2825189C2825189755B
:10021000A00CC280C281D2825189C282518975A04C
:1002200001C280C281D2825189C282518975A006E1
:10023000C280C281D2825189C282518922F5A0C274
:1002400080C281D2825189C282518922F5A0D28096
:10025000C281D2825189C2825189518922C000C093
:1002600003C0E07B08E4E6514C08DBF9D0E0D003A2
:10027000D00022C000C003C0E07B08E4E6514C0877
:10028000DBF9D0E0D003D00022C000C001780179B2
:10029000FFD9FED8FAD001D000227590FF1202E0FB
:1002A000C297C296C295C29412031AA2939297A2C1
:1002B000929296A2919295A2909294E4C3A29733BF
:1002C000A29633A29533A29433F5501202E0E4C310
:1002D000A29333A29233A29133A29033B40FBB22E4
:1002E000C0D0C003C004C0057B647CC87DFFDDFEB8
:1002F000DCFADBF6D005D004D003D0D022C0D0C0C9
:1003000003C004C0057B287CC87DFFDDFEDCFADB72
:09031000F6D005D004D003D0D0D2
:1003190022C0D0C003C004C0057B147CC87DFFDDAA
:10032900FEDCFADBF6D005D004D003D0D022C0D051
:10033900C000C001C002A82379407A10E654F0C475
:10034900F7940A40025007E72430F7098007E724A9
:1003590037F7098000E6540FF7940A40025007E77F
:100369002430F7098007E72437F709800008DACC39
:10037900D002D001D000D0D022C000C00175A000A9
:100389005189518951005189518951897840748421
:10039900513D5189515D5189784874C4513D518904
:1003A9005173518978501202E075A0005189518921
:1003B90051005189518951897484513D5189515D47
:1003C9005189785874C4513D518951735189120228
:1003D900E0D001D00022783079907522107411F69E
:1003E9000408F70409D522F7E412029AE550C4F586
:0903F9002312033712038280EF86
:00000001FF
