:03000000020901F1
:0C090100787FE4F6D8FD758113020948E8
:040B1F0002080000C8
:100ACA007590F0759DF0759C0FE4F59EE59E70FC9F
:060ADA0075B101D2AF224C
:100A7600E4FDFCC3ED9FEC9E5015E4FBFA0BBB00B6
:0F0A8600010ABA01F8BB7EF50DBD00010C80E43A
:010A9500223E
:10080000E4F50DF50EF9F50FF510FDFCFE7590F011
:10081000E590F454F0C4540FFFAB05A803EF088033
:1008200002C313D8FC30E0048D0E800B0DBD000117
:100830000CED64044C70E275900FE590F4540FFFDA
:10084000E4FCFDAB05A803EF088002C313D8FC301D
:10085000E004A905800B0DBD00010CED64044C7093
:10086000E2E50E25E025E029F50F7590F0E590F41E
:1008700054F0C4540FFFE4FCFDAB05A803EF08805F
:1008800002C313D8FC30E0048D0E800B0DBD0001B7
:100890000CED64044C70E275900FE590F4540FFF7A
:1008A000E4FCFDAB05A803EF088002C313D8FC30BD
:1008B000E004A905800B0DBD00010CED64044C7033
:1008C000E2E50E25E025E029F510B50F01FE7430B4
:1008D0002EFEFDD39439748094804016ED944174BB
:1008E000809480500D74072EFE8007AF90EF64F067
:1008F00060057590F080F4E4F59EE59E70FCAF060F
:0109000022D4
:070A0400120AE07F047E00EE
:100A0B00E4FDFCC3ED9FEC9E5015E4FBFA0BBB0021
:0F0A1B00010ABA01F8BB7EF50DBD00010C80E4A5
:010A2A0022A9
:100AE000C280C281D2828FA07F0A7E00120A0BC20E
:020AF000822260
:100AF200D280C281D2828FA07F0A7E00120A0BC2EC
:020B020082224D
:100A51008B118A128913AB11AA12A913120AB16060
:100A6100130513E5137002051214F9120AB1FF12EE
:050A71000AF280E22200
:100A96007F387E00120A047F06120A047F0C120AAF
:0B0AA600047F01120A047F80020AE0B6
:0A0B0400E4F5A0C282C280C2812283
:0A0B0E00D2AFD2ACC2AB7598C02282
:070B1800438920758DCC22FA
:03003B0002098D2A
:10098D00C0E0C0D075D000C000C001C002C003C01F
:10099D0004C005C006C00785D00C1208008F0B12CD
:1009AD000AF2E50BE5D024FF929B850B99850CD0BF
:1009BD00D007D006D005D004D003D002D001D0008E
:0509CD00D0D0D0E032A3
:030023000209D2FD
:1009D200C0E0C0D085D00C30981B85990AE50AB4D6
:1009E2005906750800750901E50AB44E0675080036
:1009F200750900C298309902C299850CD0D0D0D026
:020A0200E032E0
:100A2B00120B0E120B18120ACAD28ED29CC298C28B
:100A3B0099E50964014508700375B101E50945089D
:060A4B0070EFF5B180EB35
:10090D00020A2BE493A3F8E493A34003F68001F2CB
:10091D0008DFF48029E493A3F85407240CC8C333EB
:10092D00C4540F4420C8834004F456800146F6DFBA
:10093D00E4800B0102040810204080900B1FE47E20
:10094D00019360BCA3FF543F30E509541FFEE493AF
:10095D00A360010ECF54C025E060A840B8E493A376
:10096D00FAE493A3F8E493A3C8C582C8CAC583CAA1
:10097D00F0A3C8C582C8CAC583CADFE9DEE780BE59
:010B230000D1
:100AB100BB010689828A83E0225002E722BBFE0243
:090AC100E32289828A83E4932276
:00000001FF
