:030000000202AB4E
:1002000075A038C280C281D2825176C28251767581
:10021000A00CC280C281D2825176C282517675A072
:1002200001C280C281D2825176C282517675A00607
:10023000C280C281D2825176C282517622F5A0C29A
:1002400080C281D2825176C282517622F5A0D280BC
:10025000C281D2825159C28222C0D0C003C004C020
:10026000057B027CC87DFFDDFEDCFADBF6D005D025
:1002700004D003D0D022C000C001780179FFD9FE9C
:10028000D8FAD001D00022C000C003C006C0E07B75
:100290001178417E80EE513D5176E4E8514C080ED4
:1002A000DBF3D0E0D006D003D0002275A00075901B
:1002B00000517651765100517651765176748151C4
:1002C0003D51765187517675A001C280C281D2829C
:0802D0005176C282517680EBE9
:00000001FF
