:0300000002013BBF
:10003B0002050075A038C280C281D28211EAC28249
:10004B0011EA75A00CC280C281D28211EAC2821160
:10005B00EA75A001C280C281D28211EAC28211EA82
:10006B0075A006C280C281D28211EAC28211EA2235
:10007B00F5A0C280C281D28211EAC28211EA22F5B6
:10008B00A0D280C281D28211B4C28222C0D0C0035E
:10009B00C004C0057B147CC87DFFDDFEDCFADBF6FB
:1000AB00D005D004D003D0D022C0D0C003C004C030
:1000BB00057B027CC87DFFDDFEDCFADBF6D005D0CC
:1000CB0004D003D0D022C0D0C003C004C0057C280C
:1000DB007DFFDDFEDCFAD005D004D003D0D022C0EA
:1000EB0000C001780179FFD9FED8FAD001D00022E7
:1000FB00C000C003C006C0E07B1178417E80EE11CA
:10010B007B11EAE4E8118A080EDBF3D0E0D006D0CD
:10011B0003D00022C000C003C006C0E0FE748111F2
:10012B007B11EAE4EE118AD0E0D006D003D0002296
:10013B0075A00011EA11EA113E11EA11EA11EA74F5
:10014B0081117B11EA75900FD2AFE5B14401F5B186
:10015B00759C0F759DF07590F011FB11EA75A00160
:0E016B00C280C281D28211EAC28211EA80EB08
:10050000E59011D1B5906EC290D291D292D293E57E
:100510009054F0B4F02FD290C291D292D293E59041
:1005200054F0B4F025D290D291C292D293E5905477
:10053000F0B4F01BD290D291D292C293E59054F0D5
:10054000B4F01180C2900700800F900704800A90D9
:100550000708800590070C8000335003A380FA75CC
:10056000A001C280C281D28211EAC282E4C3931286
:10057000011F120097759E00AC9EBC00F8C280C29D
:0805800081D28211EAC282322D
:100700003031323334353637383941424344454647
:00000001FF
