:030000000200DD1E
:100050007590FF120096C297C296C295C294120084
:10006000B3A2939297A2929296A2919295A2909205
:1000700094E4C3A29333A29233A29133A29033F5B6
:1000800060120096E4C3A29333A29233A29133A2EA
:100090009033B40FBB22C0D0C003C004C0057B6442
:1000A0007CC87DFFDDFEDCFCDBF6D005D004D00390
:1000B000D0D022C0D0C003C004C0057B147CC87D52
:1000C000FFDDFEDCFADBF6D005D004D003D0D02271
:1000D000E4C3E54E23232323254FF550221200507D
:0E00E00085604E12005085604F1200D080FEE9
:00000001FF
